:10000000F92F00308A000408840A82070034013482
:1000100000340A34003464340034E83403341034D7
:1000200027340134003410340034003401340034F7
:1000300010344334613472347434E3346F34203414
:100040007234653463346F346E34683465346334C9
:10005000693464346F3421340A340D340034433449
:1000600061346434613473347434723465342034EC
:100070006F3420346334613472347434E3346F3455
:100080000A340D3400344334613472347434E3344C
:100090006F342034633461346434613473347434C1
:1000A0007234613464346F340A340D34003454349F
:1000B000693470346F3420346434653420345434FB
:1000C000613467343A342034253475340A340D34BD
:1000D000003430343134323433343434353436341B
:1000E0003734383439344134423443344434453479
:1000F000463400344C3469347334743461342034FD
:1001000061347034613467346134643461340A3486
:100110000D34003443346F346434693467346F34DD
:0E0120003A342034003425345834203400346E
:10030200F001F00A0030532208000F30FD007D0892
:10031200FA000130B4210800F000831203130C1E0E
:100322008E2970089900080064008001840A04067E
:100332000319003404069629033083120313A20022
:100342002208FD001430A621080083120313A10025
:100352002108F4217D0483120313A0002008FA006F
:100362002108B4210800FC008312031385107C08C5
:10037200FB007B077E3934247A083424831203136A
:100382008514080083120313A2007D09A00022082D
:10039200F421831203132005A1002108FA00220888
:1003A200B421080083120313BF003F08BE003E08B9
:1003B200B5002630A9220038031DE12901300800CA
:1003C2000030080083160313861406159817981632
:1003D2001812831203139817181683160313181191
:1003E200193099000800F800831203138510780869
:1003F200F70077077E398038342400303424F70040
:100402007708F90083120313851479080800F100B4
:100412006400831603139C18092A71089B003F305D
:10042200F00070089C051C1403101C180314003003
:10043200031801301A08080083120313C20042088D
:10044200D72383120313C0004008C1004208053EAF
:10045200840083138001C108031D312A0130080082
:1004620000300800F1007108F000700883120313D5
:10047200E6003F30F00070088316031386058616E7
:100482007108023A0319492A7108033A031D4D2AD9
:1004920083120313861708007F30F000700883125E
:1004A20086050800F200831603139C18542A72086A
:1004B2009B0070089A003F30F10071089C0583127E
:1004C200031303108B1B03148B13831603131C15C6
:1004D20055309D00AA309D009C141C1183120313F9
:1004E200031C08008B170800790878040319A22A54
:1004F200FD01FD0AF91B892A01300310F80DF90DDF
:10050200FF3E031D7E2A0130FC007C08FD077B2A8A
:1005120079087B02031D8F2A78087A02031C972A26
:100522007808FA027908031CFB03FB02013003106E
:10053200F90CF80CFF3E031D982A0130FD02031D41
:10054200892A7B08F901F9077A08F801F8070800F7
:1005520083120313BA000730B6003608FA000D30D2
:10056200B421831203133A08B60035088400360812
:10057200831380003508B6003608A300A401A40A3C
:100582003508B7003708A5003C30B8003808A60087
:100592000C30C62683120313B9003908BB00BB080E
:1005A200031DD82A10303C063D040319DC2A023010
:1005B200B6003608BB003B080800831603138510FB
:1005C2000510831203138514051486218D308312BE
:1005D2000313A3002308FA002A30B4213E30831209
:1005E2000313A3002308FA002B30B4211E30831218
:1005F2000313A3002308FA002D30B421FA012C3092
:10060200B421403083120313A3002308FA001530EB
:10061200B4213D3083120313A3002308FA001130E2
:10062200B4219D210800F501F60171087004031937
:100632004B2BF701F70AF11B2A2B01300310F00DA7
:10064200F10DFF3E031D1F2B0130F4007408F70764
:100652001C2B01300310F50DF60DFF3E031D2B2B55
:1006620071087302031D372B70087202031C402BA2
:100672007008F2027108031CF303F30275140130CF
:100682000310F10CF00CFF3E031D412B0130F70269
:10069200031D2A2B7608F101F1077508F001F00716
:1006A2000800F40000300822F3007308F500750812
:1006B200FF3A031D622BF001F00A00305322F501CC
:1006C200F50A7408840083130008F3007308F0002D
:1006D20075085322740A840083130008F300730818
:1006E200F0007508013E53227408023E8400831311
:1006F2000008F3007308F0007508023E53227408E4
:10070200033E840083130008F3007308F0007508A9
:10071200033E53227508043EF3007308F0000030D4
:1007220053220800F40000300822F2007208F3009D
:100732007308013A0319A12B7308FF3A031DA32B77
:1007420000300800F501F50A730875020318D52B6D
:10075200740884007508082283130006031DD02B39
:10076200740A84007508013E082283130006031DE3
:10077200D02B7408023E84007508023E08228313BF
:100782000006031DD02B7408033E84007508033E47
:10079200082283130006031DD02B01300800043009
:1007A200F2007208F507A52B00300800831203132C
:1007B200BF00BA01FA010D30B42193308312031342
:1007C200B5003F0884003508831380002030B5004F
:1007D2003F0A8400350880000830B5003508FD0066
:1007E2000830C321831203133F08B5003508A30064
:1007F2000230B6003608A4003F08B7003708A5004B
:100802003B30B8003808A6000C30C626831203130A
:10081200B9003908BD00BD08031D322CBE010430E9
:100822003E020318262C3E083F07B5003508840017
:1008320083130008B6003608BA060130B500350841
:10084200BE0704303E02031C142C3F08043E840001
:10085200831300083A060319322C0230B50035081A
:10086200BD003D080800F1007108F0007008F600B4
:10087200831203136608013A0319432C6608033AEC
:10088200031D7B2CF201F3017308803AFF008030D4
:100892007F02031D4E2C083072020318BD2CF61F76
:1008A200562C8312031306175C2CBF30F00070081D
:1008B2008312031386050D30F000F00B5E2C80309E
:1008C200F00070088312031386060310F60D861AD1
:1008D20076140D30F000F00B6C2C8030F0007008B4
:1008E2008312031386060130F2070318F30A00305D
:1008F200F307452CF401F5017508803AFF008030BA
:100902007F02031D862C083074020318BD2CF61FCB
:100912008E2C831203130617942CBF30F00070083C
:100922008312031386050310F60D0D30F000F00B51
:10093200982C8030F0007008831203138606861A02
:1009420076140D30F000F00BA42C8030F00070080B
:100952008312031386060130F4070318F50A0030E8
:10096200F5077508803AFF0080307F02031DBB2C1B
:1009720008307402031C882C7608080083120313C3
:10098200AD002030A2002208A6000130831203131A
:10099200AD07FF302D0784000120A2002208AE001F
:1009A200AE08031908002E08253A0319DB2C2E087D
:1009B2008D21C62C83120313A701E62CA717FA2C4C
:1009C200C030A2002208A704FA2C0130AD07FF3084
:1009D2002D0784000120AE00003A0319A32D583AD6
:1009E2000319DF2C2D3A0319E12C0D3A0319DF2CE0
:1009F200C62C2608840083130008A900840A000874
:100A0200AA000230A2002208A6073F2DAE01AE0ABC
:100A12002E08053A0319482D2E08A2002207013E8E
:100A220084000120A3000120A40024082A02031D3F
:100A32001C2D23082902031C482D0130A200220884
:100A4200AE07092DAE01AE0A2E08043A0319482D4D
:100A52002E08A20022070B3E84000120A3000120E1
:100A6200A40024082A02031D382D23082902031C8E
:100A7200482D0130A2002208AE07252D2708C039D3
:100A8200803A0319232D403A0319072D482D2E08C9
:100A9200A2002208A8008F2D0A30F8000030F900C9
:100AA2002808A2002207013E84000120F000012054
:100AB200F1002A08F301F3072908F201F2071423CF
:100AC2007108FB01FB077008FA01FA077522780822
:100AD200303E83120313A30023088C2D2808A200A2
:100AE20022070B3E84000120F0000120F1002A08B9
:100AF200F301F3072908F201F207142370080F39F2
:100B020083120313A3002308A5002508633E840073
:100B12000120A2002208AE002E088D21FF30831290
:100B22000313A2002208A8072808FF3A0319C62CBB
:100B32002708C039803A03196F2D403A03194D2D09
:100B42008D2D8D2D0800E32100303322DE22831605
:100B5200031386110616061083120313CC01CD016E
:100B62004D08803AFF0080307F02031DBA2D0A3003
:100B72004C020318EF2D8312031386150630C500AD
:100B82001330C400B130C300C30BC52DC40BC52D37
:100B9200C50BC52DCC2D8312031386110630C5005B
:100BA2001330C400B130C300C30BD52DC40BD52DF7
:100BB200C50BD52DDC2D013083120313CC0703188E
:100BC200CD0A0030CD074D08803AFF0080307F0209
:100BD200031DED2D0A304C02031CBC2D831203139E
:100BE200061AF72D0130C3004308E5076508083AE5
:100BF200031D1E2E81217430BF2483120313E501CD
:100C02008615CE010A304E0203181D2E0330C50090
:100C12000830C4007830C300C30B0D2EC40B0D2E58
:100C2200C50B0D2E013083120313C3004308CE07F8
:100C32000A304E02031C072E86115230D321003A8D
:100C42000319B52E831203135208C300C4014308CB
:100C5200A0004408A1005130BF2446301D22003AB2
:100C62000319B52E8312031386158430BF24831211
:100C72000313D001D1015108803AFF0080307F0276
:100C8200031D452E053050020318692E83120313EB
:100C92005008463E840083130008C300C401430881
:100CA200A0004408A1008D30BF2401308312031339
:100CB200D0070318D10A0030D1075108803AFF004B
:100CC20080307F02031D672E05305002031C472E21
:100CD2002630BF2483120313061A892E463052236C
:100CE20083120313E5013D30BF24831203138615DB
:100CF2000630C5001330C400B130C300C30B7F2ED1
:100D0200C40B7F2EC50B7F2E862E831203138611F2
:100D120046309323003A0319B32E831203130614A9
:100D22001330BF2483120313CF0108304F0203187C
:100D3200B12E0630C5001330C400B130C300C30B5E
:100D4200A02EC40BA02EC50BA02EA72E01308312FD
:100D52000313C3004308CF0708304F02031C9A2E27
:100D62000610B52E2930BF248312031386110630D4
:100D7200C5001330C400B130C300C30BBE2EC40B78
:100D8200BE2EC50BBE2EC52EEF2D83120313B1004E
:100D92000230A7002708AE00B001AD01DF2E1230ED
:100DA200A7002708B0001030DB2E7730A7002708F5
:100DB200B0003030A7002708AD00E72E31080C3A0A
:100DC2000319D62E023A0319D02EE72E30088038A6
:100DD200A7002708FA000230B421803083120313DF
:100DE200A7002708FD000430C321803083120313BB
:100DF200A7002708FD000A30A621FA010130B4211C
:100E020083120313B201B3012408A700A801280822
:100E12003302031D0E2F270832020318252F320832
:100E22002307A7002708840083130008A8002808C6
:100E3200FA000930B421013083120313B2070318F8
:100E4200B30A0030B307052F3108A7002708FA00BC
:100E52000130B4218312031331080C3A031D372FDA
:100E62008030A7002708FD000D30A621FF30831235
:100E72000313B200FF30B3000430F42183120313D2
:100E8200A7002708B4000130B2020030031CB303EC
:100E9200B30233083204031D3418532F34082D05CE
:100EA20003193D2F8030A7002708FD000D30C32114
:100EB20083120313330832040319F72F0630F42187
:100EC2001B39031DF12F83120313AE0130083405C1
:100ED200A700271C6E2FAE01AE0A31080C3A031D83
:100EE200F72F0A30F42183120313A7002708B40056
:100EF2000C30F421073983120313A7002708AF002F
:100F02002F080319A82F3408A700A8010310A70D62
:100F1200A80D0310A70DA80D0310A70DA80D2F08EB
:100F22002707A9000030031801302807AA00290862
:100F3200F83EAB002A080318013EFF3EAC0026082B
:100F420084002B0883138000840A2C08BB2F3408EA
:100F5200A700A8010310A70DA80D0310A70DA80D47
:100F62000310A70DA80D260884002708831380000C
:100F7200840A28088000B408031DC12FB401B40AF2
:100F820011303402031CC92F1030A7002708B40007
:100F9200B201B3013408A700A80128083302031DD7
:100FA200D42F270832020318EA2F0930F4218312C2
:100FB2000313A70032082507A80028088400270881
:100FC200831380000130B2070318B30A0030B3075D
:100FD200CB2F32082507A700270884008001F72FAE
:100FE200023083120313A7002708AE002E08080060
:0E0FF200831353308400663095218301A42DB3
:02400E002AFF87
:00000001FF
