:10000000F92F00308A000408840A82070034013482
:1000100000340A34003464340034E83403341034D7
:1000200027340134003410340034003401340034F7
:1000300010344334613472347434E3346F34203414
:100040007234653463346F346E34683465346334C9
:10005000693464346F3421340A340D340034433449
:1000600061346434613473347434723465342034EC
:100070006F3420346334613472347434E3346F3455
:100080000A340D3400344334613472347434E3344C
:100090006F342034633461346434613473347434C1
:1000A0007234613464346F340A340D34003454349F
:1000B000693470346F3420346434653420345434FB
:1000C000613467343A342034253475340A340D34BD
:1000D000003430343134323433343434353436341B
:1000E0003734383439344134423443344434453479
:1000F000463400344C3469347334743461342034FD
:1001000061347034613467346134643461340A3486
:100110000D34003443346F346434693467346F34DD
:0E0120003A342034003425345834203400346E
:10032200F001F00A0030632208000F30FD007D0862
:10033200FA000130C4210800F000831203130C1EDE
:100342009E2970089900080064008001840A04064E
:10035200031900340406A629033083120313A200F2
:100362002208FD001430B621080083120313A100F5
:10037200210804227D0483120313A0002008FA003E
:100382002108C4210800FC008312031385107C0895
:10039200FB007B077E393C247A083C24831203133A
:1003A2008514080083120313A2007D09A00022080D
:1003B2000422831203132005A1002108FA00220857
:1003C200C421080083120313BF003F08BE003E0889
:1003D200B5002630B722003A031DF129013008008A
:1003E2000030080083160313861406159817981612
:1003F2001812831203139817181683160313181171
:10040200193099000800F800831203138510780848
:10041200F70077077E3980383C2400303C24F7000F
:100422007708F90083120313851479080800F10094
:100432006400831603139C18192A71089B003F302D
:10044200F00070089C051C1403101C1803140030E3
:10045200031801301A08080083120313C20042086D
:10046200DF2383120313C0004008C1004208053E87
:100472008400831380014108031D412A01300800D2
:1004820000300800F1007108F000700883120313B5
:10049200E6003F30F00070088316031386058616C7
:1004A200023071060319592A03307106031D5D2AB1
:1004B20083120313861708007F30F000700883123E
:1004C20086050800F200831603139C18642A72083A
:1004D2009B0070089A003F30F10071089C0583125E
:1004E200031303108B1B03148B13831603131C15A6
:1004F20055309D00AA309D009C141C1183120313D9
:10050200031C08008B170800780879040319B22A23
:10051200FD01FD0AF91B992A01300310F80DF90DAE
:10052200FF3E031D8E2A0130FC007C08FD078B2A4A
:1005320079087B02031D9F2A78087A02031CA72AE6
:100542007808FA027908031CFB03FB02013003104E
:10055200F90CF80CFF3E031DA82A0130FD02031D11
:10056200992A7B08F9007A08F8000800831203131D
:10057200BA000730B6003608FA000D30C4218312E3
:1005820003133A08B6003508840036088313800046
:100592003508B6003608A300A401A40A3508B7003E
:1005A2003708A5003C30B8003808A6000C30C62633
:1005B20083120313B9003908BB003B08031DE62A66
:1005C20010303C063D040319EA2A0230B600360810
:1005D200BB003B0808008316031385100510831225
:1005E20003138514051496218D3083120313A3007F
:1005F2002308FA002A30C4213E3083120313A300D9
:100602002308FA002B30C4211E3083120313A300E7
:100612002308FA002D30C421FA012C30C4214030C5
:1006220083120313A3002308FA001530C4213D30BE
:1006320083120313A3002308FA001130C421AD2151
:100642000800F501F601700871040319592BF7012E
:10065200F70AF11B382B01300310F00DF10DFF3EAC
:10066200031D2D2B0130F4007408F7072A2B0130EB
:100672000310F50DF60DFF3E031D392B71087302B1
:10068200031D452B70087202031C4E2B7008F202E8
:100692007108031CF303F302751401300310F10C0B
:1006A200F00CFF3E031D4F2B0130F702031D382BC8
:1006B2007608F1007508F0000800F40000301822F6
:1006C200F3007308F500750A031D6D2BF001F00AA3
:1006D20000306322F501F50A7408840083130008D0
:1006E200F3007308F00075086322740A8400831310
:1006F2000008F3007308F0007508013E63227408D5
:10070200023E840083130008F3007308F0007508AA
:10071200023E63227408033E840083130008F30040
:100722007308F0007508033E63227508043EF30067
:100732007308F000003063220800F4000030182231
:10074200F2007208F3007303031D730A031DAB2B3F
:1007520000300800F501F50A730875020318DD2B55
:10076200740884007508182283130006031DD82B11
:10077200740A84007508013E182283130006031DC3
:10078200D82B7408023E84007508023E1822831397
:100792000006031DD82B7408033E84007508033E2F
:1007A200182283130006031DD82B013008000430E1
:1007B200F2007208F507AD2B003008008312031314
:1007C200BF00BA01FA010D30C42193308312031322
:1007D200B5003F0884003508831380002030B5003F
:1007E2003F0A8400350880000830B5003508FD0056
:1007F2000830D321831203133F08B5003508A30044
:100802000230B6003608A4003F08B7003708A5003A
:100812003B30B8003808A6000C30C62683120313FA
:10082200B9003908BD003D08031D3A2CBE01043051
:100832003E0203182E2C3E083F07B50035088400FF
:1008420083130008B6003608BA060130B500350831
:10085200BE0704303E02031C1C2C3F08043E8400E9
:10086200831300083A0603193A2C0230B500350802
:10087200BD003D080800F1007108F0007008F600A4
:1008820083120313660303194A2C03306606031D01
:10089200822CF201F3017308803AFF0080307F025C
:1008A200031D552C083072020318C42CF61F5D2C50
:1008B200831203130617632CBF30F00070088312F3
:1008C200031386050D30F000F00B652C8030F0002C
:1008D20070088312031386060310F60D861A761427
:1008E2000D30F000F00B732C8030F0007008831292
:1008F200031386060130F2070318F30A0030F307E8
:100902004C2CF401F5017508803AFF0080307F021B
:10091200031D8D2C083074020318C42CF61F952C6D
:100922008312031306179B2CBF30F000700883124A
:10093200031386050310F60D0D30F000F00B9F2C0B
:100942008030F0007008831203138606861A76142C
:100952000D30F000F00BAB2C8030F00070088312E9
:10096200031386060130F4070318F50A0030F50771
:100972007508803AFF0080307F02031DC22C0830C8
:100982007402031C8F2C7608080083120313AB0039
:100992002030A2002208A600013083120313AB0705
:1009A200FF302B0784000120A2002208AC002C0893
:1009B2000319080025302C060319E22C2C089D216E
:1009C200CD2C83120313A701ED2CA717012DC030E4
:1009D200A2002208A704012D0130AB07FF302B072C
:1009E20084000120AC00003A0319A32D583A0319E0
:1009F200E62C2D3A0319E82C0D3A0319E62CCD2CDE
:100A02002608840083130008A900840A0008AA00AB
:100A12000230A2002208A607462DAC01AC0A05301E
:100A22002C0603194F2D2C08A2002207013E840038
:100A32000120A3000120A40024082A02031D232D63
:100A420023082902031C4F2D0130A2002208AC0703
:100A5200102DAC01AC0A04302C0603194F2D2C08C2
:100A6200A20022070B3E84000120A3000120A40063
:100A720024082A02031D3F2D23082902031C4F2D9F
:100A82000130A2002208AC072C2D2708C039803A79
:100A920003192A2D403A03190E2D4F2D2C08A200BE
:100AA2002208A800902D0A30F8000030F90028082A
:100AB200A2002207013E84000120F0000120F10083
:100AC2002A08F3002908F20022237108FB007008AB
:100AD200FA0085227808303E83120313A30023080C
:100AE2008D2D2808A20022070B3E84000120F00071
:100AF2000120F1002A08F3002908F20022237008DD
:100B02000F3983120313A3002308A5002508633EAF
:100B120084000120A2002208AC002C089D21FF3095
:100B220083120313A2002208A807280A0319CD2C56
:100B32002708C039803A0319722D403A0319542DFF
:100B42008E2D8E2D0800F32100304322EC228316D5
:100B5200031386110616061083120313CC01CD016E
:100B62004D08803AFF0080307F02031DBA2D0A3003
:100B72004C020318EF2D8312031386150630C500AD
:100B82001330C400B130C300C30BC52DC40BC52D37
:100B9200C50BC52DCC2D8312031386110630C5005B
:100BA2001330C400B130C300C30BD52DC40BD52DF7
:100BB200C50BD52DDC2D013083120313CC0703188E
:100BC200CD0A0030CD074D08803AFF0080307F0209
:100BD200031DED2D0A304C02031CBC2D831203139E
:100BE200061AF72D0130C3004308E50708306506F1
:100BF200031D1E2E91217430C62483120313E501B6
:100C02008615CE010A304E0203181D2E0330C50090
:100C12000830C4007830C300C30B0D2EC40B0D2E58
:100C2200C50B0D2E013083120313C3004308CE07F8
:100C32000A304E02031C072E86115230E321003A7D
:100C42000319B52E831203135208C300C4014308CB
:100C5200A0004408A1005130C62446302D22003A9B
:100C62000319B52E8312031386158430C62483120A
:100C72000313D001D1015108803AFF0080307F0276
:100C8200031D452E053050020318692E83120313EB
:100C92005008463E840083130008C300C401430881
:100CA200A0004408A1008D30C62401308312031332
:100CB200D0070318D10A0030D1075108803AFF004B
:100CC20080307F02031D672E05305002031C472E21
:100CD2002630C62483120313061A892E46305E2359
:100CE20083120313E5013D30C624831203138615D4
:100CF2000630C5001330C400B130C300C30B7F2ED1
:100D0200C40B7F2EC50B7F2E862E831203138611F2
:100D120046309E23003A0319B32E8312031306149E
:100D22001330C62483120313CF0108304F02031875
:100D3200B12E0630C5001330C400B130C300C30B5E
:100D4200A02EC40BA02EC50BA02EA72E01308312FD
:100D52000313C3004308CF0708304F02031C9A2E27
:100D62000610B52E2930C6248312031386110630CD
:100D7200C5001330C400B130C300C30BBE2EC40B78
:100D8200BE2EC50BBE2EC52EEF2D83120313B1004E
:100D92000230A7002708AE00B001AD01DF2E1230ED
:100DA200A7002708B0001030DB2E7730A7002708F5
:100DB200B0003030A7002708AD00E72E31080C3A0A
:100DC2000319D62E023A0319D02EE72E30088038A6
:100DD200A7002708FA000230C421803083120313CF
:100DE200A7002708FD000430D321803083120313AB
:100DF200A7002708FD000A30B621FA010130C421FC
:100E020083120313B201B3012408A700A801280822
:100E12003302031D0E2F270832020318252F320832
:100E22002307A7002708840083130008A8002808C6
:100E3200FA000930C421013083120313B2070318E8
:100E4200B30A0030B307052F3108A7002708FA00BC
:100E52000130C4210C30831203133106031D372FD6
:100E62008030A7002708FD000D30B621FF30831225
:100E72000313B200FF30B3000430042283120313C1
:100E8200A7002708B4000130B2020030031CB303EC
:100E9200B30232083304031D3418532F34082D05CE
:100EA20003193D2F8030A7002708FD000D30D32104
:100EB20083120313320833040319F72F0630042276
:100EC2001B39031DF12F83120313AE0130083405C1
:100ED200A700271C6E2FAE01AE0A0C303106031D8F
:100EE200F72F0A30042283120313A7002708B40045
:100EF2000C300422073983120313A7002708AF001E
:100F02002F080319A82F3408A700A8010310A70D62
:100F1200A80D0310A70DA80D0310A70DA80D2F08EB
:100F22002707A9000030031801302807AA00290862
:100F3200F83EAB002A080318013EFF3EAC0026082B
:100F420084002B0883138000840A2C08BB2F3408EA
:100F5200A700A8010310A70DA80D0310A70DA80D47
:100F62000310A70DA80D260884002708831380000C
:100F7200840A280880003408031DC12FB401B40A72
:100F820011303402031CC92F1030A7002708B40007
:100F9200B201B3013408A700A80128083302031DD7
:100FA200D42F270832020318EA2F093004228312B1
:100FB2000313A70032082507A80028088400270881
:100FC200831380000130B2070318B30A0030B3075D
:100FD200CB2F32082507A700270884008001F72FAE
:100FE200023083120313A7002708AE002E08080060
:0E0FF2008313533084006630A5218301A42DA3
:02400E002AFF87
:00000001FF
