:10000000F72F00308A000408840A82070034013484
:1000100000340A34003464340034E83403341034D7
:1000200027345434693470346F3420346434653484
:1000300020345434613467343A34203425347534F0
:1000400000344F346C34613420346D3475346E3484
:1000500064346F342134003443346F34643469348D
:1000600067346F343A342034003425346434203417
:1000700020342034203400342534643400340A34ED
:0600800000342E340034B0
:10042A0064008001840A0406031900340406162AAB
:10043A00033083120313B6003608B30014302F2298
:10044A0008000F3083120313B3003308B0000130E1
:10045A005D22080083120313B5003508AC2283120B
:10046A0003133304B4003408B00035085D220800D1
:10047A0083120313B6003309B4003608AC22831280
:10048A0003133405B5003508B00036085D220800AC
:10049A0083120313D3005308D2005208C90026302E
:1004AA001D23003A031D5B2A0130080000300800B2
:1004BA0083120313B20085103208B10031077E3966
:1004CA00DA24831203133008DA24831203138514FF
:1004DA00080083160313861406159817981618121F
:1004EA008312031398171816831603131811193059
:1004FA009900080083120313D60056087D2483123C
:10050A000313D4005408D5005608053E840083130B
:10051A0080015508031D932A0130080000300800A5
:10052A00F0000A307006031DA52A831203130C1E5D
:10053A009A2A0A3099000C1EA02A0D309900080048
:10054A00831203130C1EA52A70089900080083124F
:10055A000313AE0085102E08AC002C077E398038B4
:10056A00DA240030DA2483120313AC002C08AF001B
:10057A0085142F08AC00AD012C08A0002D08A1009D
:10058A002F305E25831203132F080800F10071082B
:10059A00F000700883120313EE003F30F000700879
:1005AA008316031386058616023071060319E12A9B
:1005BA0003307106031DE52A831203138617080008
:1005CA007F30F000700883128605080078087904E5
:1005DA000319182BFD01FD0AF91BFF2A013003102C
:1005EA00F80DF90DFF3E031DF42A0130FC007C08CA
:1005FA00FD07F12A79087B02031D052B78087A0288
:10060A00031C0D2B7808FA027908031CFB03FB0272
:10061A0001300310F90CF80CFF3E031D0E2B0130BC
:10062A00FD02031DFF2A7B08F9007A08F80008007A
:10063A0083120313CE000730CA004A08B0000D30F7
:10064A005D22831203134E08CA00490884004A082F
:10065A00831380004908CA004A08B700B801B80ADB
:10066A004908CB004B08B9005030CC004C08BA00FE
:10067A000C30C22683120313CD004D08CF004F0859
:10068A00031D4C2B1030500651040319502B023015
:10069A00CA004A08CF004F080800831603138510C2
:1006AA000510831203138514051426228D30831234
:1006BA000313B7003708B0002A305D223E30831298
:1006CA000313B7003708B0002B305D221E308312A7
:1006DA000313B7003708B0002D305D2283120313CD
:1006EA00B0012C305D22403083120313B700370863
:1006FA00B00015305D223D3083120313B70037086E
:10070A00B00011305D221D220800F501F6017008C3
:10071A0071040319C12BF701F70AF11BA02B013051
:10072A000310F00DF10DFF3E031D952B0130F4006F
:10073A007408F707922B01300310F50DF60DFF3EF2
:10074A00031DA12B71087302031DAD2B70087202E1
:10075A00031CB62B7008F2027108031CF303F302A0
:10076A00751401300310F10CF00CFF3E031DB72B7A
:10077A000130F702031DA02B7608F1007508F0007E
:10078A00080083120313BC000430B9003908B3000F
:10079A0005303D22803083120313B9003908B300B3
:1007AA000A302F2283120313BB0137083B020318B6
:1007BA00F22B3C08840083130008B9003908B00002
:1007CA0009305D22013083120313B9003908BC07CE
:1007DA000130B9003908BB07DA2B0330B9003908F0
:1007EA00B00001305D22FF3083120313B9003908CB
:1007FA00BB000530AC2283120313B9003908BA00D2
:10080A000130BB023B0803190C2C3A1DFE2B223087
:10081A00AC2283120313B900380884003908831301
:10082A0080002130AC2283120313B900380A8400F5
:10083A00390883138000080083120313D900933008
:10084A00C9004908CE007030C9004908CF000230FB
:10085A00C9004908DC0007305C0203184A2C590811
:10086A00840083130008C9005C084E3E84004908CE
:10087A0080000130C9004908D9070130C900490878
:10088A00DC0707305C02031C342C0730C900490816
:10089A00B7005530CA004A08B8004E30C6234E3059
:1008AA0083120313C9004908B7000930CA004A086D
:1008BA00B8004E30CB004B08B9005A30CC004C0877
:1008CA00BA000C30C22683120313CD004D08D7009C
:1008DA005708031D7A2C18305A065B04031D7A2C1C
:1008EA004E08C9004908D8007B2CD80158080800CE
:1008FA0083120313D300CE01B0010D305D22933071
:10090A0083120313C9005308840049088313800023
:10091A002030C900530A8400490880000830C90001
:10092A004908B30008303D22831203135308C90053
:10093A004908B7000230CA004A08B8005308CB0079
:10094A004B08B9004F30CC004C08BA000C30C22614
:10095A0083120313CD004D08D1005108031DD82C72
:10096A00D201043052020318CC2C52085307C90092
:10097A004908840083130008CA004A08CE060130D9
:10098A00C9004908D20704305202031CBA2C530882
:10099A00043E8400831300084E060319D82C023043
:1009AA00C9004908D10051080800F700831203134F
:1009BA006E030319E42C03306E06031D1C2DF3018C
:1009CA00F4017408803AFF0080307F02031DEF2C87
:1009DA000830730203185C2DF71FF72C83120313D8
:1009EA000617FD2CBF30F00070088312031386052A
:1009FA008030F00070088606861A72140D30F000F6
:100A0A00F00B052D8030F000700883120313860660
:100A1A000310F20D0310F70D0D30F000F00B132D3B
:100A2A000130F3070318F40A0030F407E62CF50145
:100A3A00F6017608803AFF0080307F02031D272DD9
:100A4A000830750203185C2D83120313861A711479
:100A5A008030F00070088606F71F352D0617392DED
:100A6A00BF30F000700886050D30F000F00B3B2D0A
:100A7A008030F00070088312031386060310F10D0C
:100A8A000310F70D0D30F000F00B492D0130F5077A
:100A9A000318F60A0030F6077608803AFF0080301D
:100AAA007F02031D5A2D08307502031C292D720876
:100ABA00080083120313AA002030A2002208A6000D
:100ACA00013083120313AA07FF302A07840001208A
:100ADA00A2002208AB002B080319080025302B06B8
:100AEA0003197A2D2B089522652D83120313A7016A
:100AFA00802D2717942D0130AA07FF302A0784007A
:100B0A000120AB00003A03190F2E643A0319942D01
:100B1A000D3A0319942D1C3A03197E2D652D271BB6
:100B2A00AE2D2608840083130008A800840A000852
:100B3A00A9000230A2002208A607A91FBA2D033075
:100B4A00A2002208A704A809A909A80A0319A90A40
:100B5A00BA2D2608840083130008A800840A000816
:100B6A00A9000230A2002208A607AB01AB0A053091
:100B7A002B060319D92D2B08A2002207013E840057
:100B8A000120A3000120A40024082902031DCF2D5F
:100B9A0023082802031CD92D0130A2002208AB0722
:100BAA0005302B06031DC02D270803390319DF2D35
:100BBA002D309522831203132B08A2002208A500C8
:100BCA00FF3083120313A2002208A507250A03197E
:100BDA00652D0A30F8000030F9002508A200220726
:100BEA00013E84000120F0000120F1002908F300F1
:100BFA002808F2008A237108FB007008FA00EB2229
:100C0A007808303E83120313A3002308AB002B0895
:100C1A009522E52D08006E220030CB22522383163E
:100C2A000313861183120313E701E8016808803A67
:100C3A00FF0080307F02031D242E0A30670203184A
:100C4A00592E1B305E258312031386150330DF00ED
:100C5A000830DE007830DD00DD0B312EDE0B312E60
:100C6A00DF0B312E8312031386110330DF000830A5
:100C7A00DE007830DD00DD0B402EDE0B402EDF0B70
:100C8A00402E013083120313E7070318E80A0030E5
:100C9A00E8076808803AFF0080307F02031D572E5C
:100CAA000A306702031C262E3B305E256B304D222C
:100CBA00003A0319B12E831203136B08DD00DE011B
:100CCA005D08A0005E08A1000B305E2561307F221E
:100CDA00003A0319B12E83120313861126305E25BA
:100CEA0083120313E901EA016A08803AFF0080309F
:100CFA007F02031D822E053069020318A82E831273
:100D0A0003136908613E840083130008DD00DE01D5
:100D1A005D08A0005E08A10036305E2534305E25ED
:100D2A00013083120313E9070318EA0A0030EA07BD
:100D3A006A08803AFF0080307F02031DA62E053024
:100D4A006902031C842E39305E2561302124831206
:100D5A000313DD005D08E0008312031386150630D5
:100D6A00DF001330DE00B130DD00DD0BBA2EDE0B02
:100D7A00BA2EDF0BBA2EC12E592E83120313C500C9
:100D8A000230BB003B08C200C401C101DB2E123095
:100D9A00BB003B08C4001030D72E7730BB003B089D
:100DAA00C4003030BB003B08C100E32E45080C3AB2
:100DBA000319D22E023A0319CC2EE32E44088038A6
:100DCA00BB003B08B00002305D228030831203135F
:100DDA00BB003B08B30004303D228030831203136A
:100DEA00BB003B08B3000A302F2283120313B00161
:100DFA0001305D2283120313C601C7013808BB0004
:100E0A00BC013C084702031D0C2F3B08460203188D
:100E1A00232F46083707BB003B08840083130008CA
:100E2A00BC003C08B00009305D2201308312031374
:100E3A00C6070318C70A0030C707032F4508BB00B7
:100E4A003B08B00001305D220C30831203134506C3
:100E5A00031D352F8030BB003B08B3000D302F2215
:100E6A00FF3083120313C600FF30C7000430AC22E0
:100E7A0083120313BB003B08C8000130C6020030CE
:100E8A00031CC703C70246084704031D4818512F0D
:100E9A004808410503193B2F8030BB003B08B300CB
:100EAA000D303D2283120313460847040319F52F18
:100EBA000630AC221B39031DEF2F83120313C20124
:100ECA0044084805BB003B1C6C2FC201C20A0C3007
:100EDA004506031DF52F0A30AC2283120313BB000B
:100EEA003B08C8000C30AC22073983120313BB003D
:100EFA003B08C30043080319A62F4808BB00BC01DE
:100F0A000310BB0DBC0D0310BB0DBC0D0310BB0DB4
:100F1A00BC0D43083B07BD000030031801303C07F5
:100F2A00BE003D08F83EBF003E080318013EFF3EE2
:100F3A00C0003A0884003F0883138000840A4008EE
:100F4A00B92F4808BB00BC010310BB0DBC0D031030
:100F5A00BB0DBC0D0310BB0DBC0D3A0884003B0849
:100F6A0083138000840A3C0880004808031DBF2FB1
:100F7A00C801C80A11304802031CC72F1030BB0031
:100F8A003B08C800C601C7014808BB00BC013C08B1
:100F9A004702031DD22F3B0846020318E82F0930E7
:100FAA00AC2283120313BB0046083907BC003C0875
:100FBA0084003B08831380000130C6070318C70A60
:100FCA000030C707C92F46083907BB003B08840011
:100FDA008001F52F023083120313BB003B08C200C5
:100FEA0042080800EC01ED018313A0308400B03000
:060FFA0015228301102EF8
:02400E002AFF87
:00000001FF
